:1000000012C02CC02BC02AC029C069C127C026C07D
:1000100025C024C023C07EC021C020C0E9C01EC0AE
:100020001DC01CC01BC011241FBECFE5D2E0DEBF27
:10003000CDBF10E0A0E6B0E0EEE1F3E002C0059035
:100040000D92AA36B107D9F710E0AAE6B0E001C0D8
:100050001D92A137B107E1F702D05FC1D1CF8FEF79
:1000600099E6A8E181509040A040E1F700C000006F
:100070009FEF91B980EC87B98DEE86B980E183B9A5
:100080008AE083BB81E085BB13BE89B7806189BFED
:100090008CEF80BF83EF80BF82E08FBD87B5806F1C
:1000A00087BD16BC83E085BD9BBD15BC86E089BDC0
:1000B00089B7846089BF8AE187BB81EE88BB789469
:1000C00041E050E0B0ECADEEF1E0E3E075E06FEE62
:1000D0008FE891E00197F1F700C0000020916A00DD
:1000E00086B330E090E081709070842795272817C0
:1000F000390771F380916A00882331F4F0936A0024
:10010000E3BF77B966B9E4CF10926A0013BEB7B9FE
:10011000A6B9DECF1F920F920FB60F9211242F9324
:100120003F938F939F9380916A008130B9F024B1FF
:1001300035B130936200209361008FEF93E0821B12
:10014000930B90936400809363009F918F913F91F4
:100150002F910F900FBE0F901F90189590917000E7
:100160009923B9F0789410927000809166008630DF
:1001700099F087B1807F866087B984B195B19695F3
:100180008795969587958093600086E080936600BA
:10019000DCCF80937000D9CF87B1807F856087B92D
:1001A000209167003091680084B195B1820F931F50
:1001B0003695279536952795821B930B909368006B
:1001C00080936700803F910560F480EF90E090930A
:1001D0006800809367008FE083BB85E080936600B2
:1001E000B4CF929582958F7089279F708927F4CF1D
:1001F0001F920F920FB60F9211242F933F934F939C
:100200005F936F938F939F93789480916F008F5F2C
:1002100080936F0080FD1DC050916E00552329F51D
:1002200010926C0010926B008091600080936D00C2
:10023000409165002FEF31E080E092E0450F409360
:100240006E0090936200809361003093640020936D
:1002500063009F918F916F915F914F913F912F918B
:100260000F900FBE0F901F90189540916500413080
:1002700031F120916D0080916B0090916C00821B98
:10028000910990936C0080936B0097FD26C0959523
:1002900087959595879595958795959587958050A0
:1002A0009C4F969587952FEF33E0281B390B652FD0
:1002B000625C6D3718F2419540936500BFCF209185
:1002C0006D0080916B0090916C00820F911D909356
:1002D0006C0080936B0097FFDACF0F96D8CF1F92F8
:1002E0000F920FB60F9211242F933F938F939F93EA
:1002F00020916100309162008091630090916400D0
:1003000035BD2DBD95BD8CBD9F918F913F912F9196
:0E0310000F900FBE0F901F901895F894FFCF1E
:0A031E0001000200020105A000002A
:00000001FF
